:020000040000fa
:080000000002040000000000f2
:020000040000fa
:10000800c8020000c8020000c8020000c8020000c0
:10001800c8020000c8020000c8020000c8020000b0
:10002800c8020000c8020000c8020000d01d00007d
:10003800c8020000c8020000c8020000a01b00009f
:10004800c8020000c8020000c80200001c1f00000f
:10005800561f00004e220000c8020000c80200001f
:10006800c8020000c8020000c8020000c802000060
:10007800c8020000c8020000c8020000c802000050
:10008800c8020000c8020000c8020000c802000040
:10009800c8020000c8020000c8020000c802000030
:1000a800c8020000c8020000c8020000c802000020
:1000b800c8020000c8020000c8020000c802000010
:1000c800c8020000c8020000c8020000c802000000
:1000d800c8020000c8020000c8020000c8020000f0
:1000e800c8020000c8020000c8020000c8020000e0
:1000f800c8020000c8020000c8020000c8020000d0
:10010800c8020000c802000052200000c802000017
:10011800c8020000c8020000c8020000c8020000af
:10012800c8020000c8020000c8020000c80200009f
:10013800c8020000c8020000c8020000c80200008f
:10014800c8020000c8020000c8020000c80200007f
:10015800c8020000c8020000c8020000c80200006f
:10016800c8020000c8020000c8020000c80200005f
:10017800c8020000c8020000c8020000c80200004f
:10018800c8020000c8020000c8020000c80200003f
:10019800c8020000c8020000c8020000c80200002f
:1001a800c8020000c8020000c8020000c80200001f
:1001b800c8020000c8020000c8020000c80200000f
:1001c800c8020000c8020000c8020000c8020000ff
:1001d800c8020000c8020000c8020000c8020000ef
:1001e800c8020000c8020000c8020000c8020000df
:1001f800c8020000c8020000c8020000c8020000cf
:10020800c8020000c8020000c8020000c8020000be
:10021800c8020000c8020000c8020000c8020000ae
:10022800c8020000c8020000c8020000c80200009e
:10023800c8020000c8020000c8020000c80200008e
:10024800c8020000c8020000c8020000c80200007e
:10025800c8020000c8020000c8020000c80200006e
:10026800c8020000c8020000c8020000c80200005e
:0c027800c8020000c8020000c80200001c
:020000040000fa
:100400002f9921000eff28000e0188000000000037
:100410000c000700c0082200010020000f000700a8
:10042000000020000000e000020032000000020096
:10043000000000002a170200000000000040da005f
:100440000000fe00c00a20000000e00002003200b0
:10045000002020009001880000000600a102880012
:10046000800078000000eb001a003700e2804000b6
:1004700054a0b4009101ba00e280400054a0b4003e
:100480009102ba00e280400054a0b4000002eb00e8
:10049000472bde00f507b200a6018800602ce100c2
:1004a00008003a000049eb000201e80002003900b0
:1004b0003420ec0002f0a0008301e900f9ff3e00c7
:1004c000040037006128e100010032000082eb00e7
:1004d000040007001101ba000200e000e3ff3a0047
:1004e0000000060004d0a300e20f49001c00390000
:1004f000810278003549ba000201e80002003900a3
:100500003420ec0002f0a0008301e9000f0032006b
:100510002549ba000201e800020039003420ec004d
:1005200002f0a0008301e900080032000400e000ae
:100530000600320015c9ba000201e80002003900c5
:100540003420ec0002f0a0008301e9008180e80083
:1005500054a0b4000300e000e2ff3a0000000600ef
:100560009102ba00055978008301e900f7ff3200d3
:10057000c82ade00055978008301e900f3ff320044
:100580000400e000f1ff320011d9ba00eeff37009d
:100590000040da000000fe0001a8a9006701600029
:1005a0004411dd0033428000f1f82f0081806100aa
:1005b000828070003142880068006000c300de0065
:1005c000e1806000cd08dd000041800000d0a10086
:1005d00001007000004188000000060050618800a2
:1005e000616188000000060030618800000006009c
:1005f00000e8a900670160004c11dd001342800093
:10060000f1ff280081806100828070001142880023
:1006100068006000c300de00e1806000c708dd0004
:10062000004180000070a1000100700000418800be
:10063000000006000621ef0061088800800888009d
:100640001061a9000000060003f0a200889fbe0010
:100650008a9fbe008c1f7800170107001e0133001f
:100660006450e1004f0032006420e100520032008b
:1006700003826c0007003b000905d0000306d00090
:10068000820f54000c065d000200390002003200a7
:1006900089017800030678008582550004003d003a
:1006a0000003fd008103fd008502ea008b85420006
:1006b000840f720002003b0060001000e080180010
:1006c0006011b8000005eb007a28e1000a0039004b
:1006d00006007800c75ddd00f707b200878075006f
:1006e0002d003700828171000a01780061056000e9
:1006f0008180d1000080d3008502e900f9ff3b0032
:10070000060440008784480002003b006004140097
:10071000e0841c000988a300070032008a81710070
:1007200082817100610164008904d1000884d300d2
:100730008b05e800170037000978a30013003a0082
:100740000b00e000130034008b05e90008044400ae
:1007500089844c000a4474000978a3000d003a0013
:100760000b00e000070034008b05e900080444009a
:1007700089844c0001003a000b0020000978a30096
:10078000f7ff32000001eb000200370082817100a8
:100790000a0178008d0007000cf0a70001f0a0000e
:1007a000d60037006420e10002003a00838f6c001d
:1007b000d60033000801be000200be00cf003700a3
:1007c000889fbe008a9fbe008c1f7800ba00070079
:1007d000c100330003866c006450e1002e0032003b
:1007e0006420e100330032006150e1002f0032004c
:1007f0006120e1003100320085855500eb07b00033
:100800000900200008042000050037000804440007
:1008100089844c000a0031000603430087834b00a3
:100820000001530081815b00f8ff33000203be002a
:100830000800a0000804440089844c00f6ff390039
:10084000c639dd008301730001003200130020006f
:100850008904d1000884d3000998a3000500320060
:100860000800a7000300a0008904d1000884d30079
:100870008b05e8008904d1000884d3000001eb0057
:100880000281d2005100070001f0a1000cf0a70086
:1008900001f0a000990037006420e1009b003200c5
:1008a0000801be000200be00f7ff37006120e10032
:1008b000960032006000b800f3ff3700000020000f
:1008c00001f82700f0ff37000001be0065000700b7
:1008d0000470a70003f0a1006509b1001600320002
:1008e0000d0035006828e10006003500f0ff2f00fc
:1008f000f1ff27000300e00013003b000100280087
:100900000000050000004000818048008502e900e9
:10091000fcff3a0008003700f88f420002003c005c
:100920008000eb00000005008100d1000080d300b2
:100930008502e800fcff3a000300e00002003b00f3
:1009400060001000e0801800000006000001be00fa
:10095000440007000470a70003f0a10003f8a300ff
:1009600013003a006509b10010003200090035009b
:100970006928e100020035000100280000000500a0
:1009800000004000818048008502e900fcff3a0039
:1009900000000600f88f4200050035008100d100fc
:1009a0000080d3008502e800fcff3a00000006004a
:1009b0008000eb00000005004f89de008201780016
:1009c000890037006011b8009700370081002000cf
:1009d000618055000b003d000b00200061fe2f00e0
:1009e0000100e1001d00340082817100610164009a
:1009f0008904d1000884d3000000e800faff3a001f
:100a000071002000610064000300700002006000bb
:100a10000900320061044400e0844c000988a5000c
:100a2000050032008b05e8006808e10002003a008a
:100a30008904d1000884d300f20f20000258e1009d
:100a400005003d00c75ddd00f907b2008980750033
:100a500008007800000006000bf827008b007800e3
:100a600000000500c70ade00f107b200f50fb20072
:100a700008003200e1cf4200020032000170a00005
:100a800024000500810f70000100320004080500f9
:100a900044000500810f700002003a0014000500b8
:100aa0008502e9000000400081c04800fcff3b00d7
:100ab0000170a000240005000004be00e9ff07004b
:100ac0000003be000405be000200be00e5ff0700f3
:100ad000844f7500000006000200be006450e10073
:100ae000050036006420e100020036000968a3001a
:100af00001003a000800be000160a0004f06780027
:100b00004f05be004f04be0000000600f0ff2f009e
:100b1000f1ff2700f9ff3700889fbe008a9fbe00c3
:100b20008c1f7800e4ff0700ebff330003866c00a6
:100b30006450e100240032006420e100270032000c
:100b40006150e100220032006120e100210032000a
:100b50008b854200eb07b1000134b800003ab800c1
:100b60000804420089844a00013ab8000030b80005
:100b70008880400009014a00040033000000400062
:100b800081804800020149008b05e900c909dd00a8
:100b9000830170000100320013002000c814de0041
:100ba0004814dd004709de001200b200c808de006c
:100bb0000884700085ff070001f0a1000cf0a70079
:100bc00001f0a000cdff37006120e100cfff32002f
:100bd0000801be000200be00f7ff37006150e100cf
:100be000fcff3a00c9ff3700881f78000304780033
:100bf0000300e00007003d0060001000e0801800e6
:100c000060011900e081190002003b0001f02d0095
:100c1000030037000400070008f0a70001f0a0005f
:100c20004f04780000000600889fbe008a9fbe0027
:100c300000827000040271000482710026003200fc
:100c40000004be000200be006011b8006b09200065
:100c5000950220000182cf000a0039000541b10051
:100c60000082cf00070039000541b1000982cf00a2
:100c7000040039000541b1000882cf0001003900ad
:100c80000541b10005425200120032000a003b004b
:100c900082817100610164008100d1000080d30075
:100ca0008984d3000884d3008b05e8000442e8005f
:100cb000f7ff3a00070037000804440089844c001d
:100cc00000004800818048008b05e9000442e900eb
:100cd000f9ff3a003dff07004f05be004f04be007c
:100ce000000006000000fa00889fbe000004be005d
:100cf000060037000000fb00890078001d00070097
:100d0000e10f4000050032000804e80018407800b8
:100d1000e04f5000f7ff3a000000eb004f04be0028
:100d20000080fa00000006000000fa00881f78002a
:100d300001972100ebff07000004780001972100d4
:100d4000a00020000b000700080078004f04780086
:100d50000080fa00000006000000fa006801570059
:100d6000ceb8970000972100490007000080fa00e4
:100d7000000006000000fa00889fbe000104780011
:100d8000b8009000628160008084eb003c0032007b
:100d9000810178000320b2001801900002003a009f
:100da000e00f510036003a000190a0003104980095
:100db00080047800f90fb200e00f510002003a0001
:100dc00028009000000c7800ea8f540006003a00da
:100dd000010078000008b20003003a0088007800a3
:100de000d0002000e3ff070018009000d80090001a
:100df000810f50000b0032000000e8001004980042
:100e00001800780009487800000ce80010c0b30012
:100e1000a198210080487800ea8f540018003a0019
:100e200005003700880078000940780006040700b4
:100e30008004780012003700380090000010b200e3
:100e40000f00320018019000a800900048009000a8
:100e50003f04070098009000810f5000040032000a
:100e6000380090000003b300300498008084eb0049
:100e70000000eb001004980028009000000c78009f
:100e8000090078004f04be000080fa000000060050
:100e90004200fa00889fbe008a9fbe008c9fbe0061
:100ea000201f980061179800721798000000eb004f
:100eb000101f9800d9033700ee1090008100e80061
:100ec0006117980052c2b300824f520007003a00e7
:100ed0000001eb00721f980006c3b30003c2b30009
:100ee000b1c2b3006e10900014003700ae1990002c
:100ef000330190000204b200050032009301780033
:100f0000844978002e1a9000030ae8000700370091
:100f10000401fb00ae1890000200780095ff070066
:100f200000017800e10f4100bc0332009e1a9000de
:100f30008502e800151f9800b803370010427800ba
:100f4000d7c2b300874f52000b0032008002e80086
:100f5000874f520005003c00834f520009003200c9
:100f6000814f52000e003a0008003700864f5200b1
:100f70000b003a00070037000230a0000000e80034
:100f8000eeff37000200a000030037000210a000af
:100f9000010037000220a00005007800e7ff3700bd
:100fa000721f980060179800e20161000200320091
:100fb0000200a100721f98007e1c9000e8016400ee
:100fc000020032000820a100781f98008401fb0075
:100fd0000303b100e98f51000e003e000100200024
:100fe0006e119000ea08b80001fd2f0080804000db
:100ff0001200fb00808040005200fb000003b100a3
:10100000e90f5000f7ff360021179800621798008b
:101010000c0037000005eb002a179800a2c2b300ad
:10102000824f520007003a00fe1590004b007800f6
:101030007b17980020179800ee1090008100e800c0
:10104000611798000001eb00021f9800e2c2b30094
:10105000ee119000934f110022003a007e1a90008a
:1010600004e0a000741f9800644151008301e8006f
:10107000631798009342780082cf52000e003a0026
:101080007e139000c603780076179800071f98001b
:10109000030478000804e80004017800880178005f
:1010a00012003700ea18b8000003b10081014000c7
:1010b0000201e800020037008e1990006e119000c6
:1010c0009200fb0000fd2f0001004000e90f5000de
:1010d000f4ff3600031f9800820178007e1990000b
:1010e000020037007e199000ee119000b3427800a4
:1010f000054f7800c9c6b30089cf520024003200e2
:10110000721f9800631798000f003c0036c6b300aa
:1011100086cf5200ab00320004003c00e0cf52000a
:101120004303320082c5b3000f00370042c6b3004c
:1011300082cf5200c80032006541410082cf520088
:10114000be003a00c400370036c7b30086cf520055
:101150002000320007003c00f2c6b30082cf5200ec
:10116000110032000241e80082cf5200b3003a0081
:101170001100370052c7b30082cf5200b3003200d3
:101180006341410082cf5200ac003a000d003700ad
:10119000700061000100280001003a0001012000f8
:1011a00001017100d1ff37007e1d90000a60a00090
:1011b0007a1f9800a8003700fe1d90000b50a00079
:1011c0007b1f98007e1890000070a000701f980090
:1011d000a1003700fe1090004103780071179800bd
:1011e000361f9800e00f530002003a00c39521001b
:1011f000331f98000002eb00441f980002003700e4
:101200008100e800411f9800ce189000be1a90009f
:10121000058040000043eb00904f1300f8ff3a00b8
:101220008e1b9000e08f5300050032004e1c900092
:10123000888f53000200310087047800491f98000e
:101240004e1a90000006eb002e159000840f5500fa
:101250000100360004065500fe1d9000e88665007a
:1012600031003a008c01780008c2b300ae1c900037
:1012700010003700390090000004b2000400320072
:101280001900780008487800800ce8000500370055
:101290008900780000022000b6fe0700e10f400040
:1012a000030032001e1890000000e800101f980094
:1012b0008c0178000c06e900e08f5100edff3a0048
:1012c00019003700340090000004b2000900320019
:1012d0009401780008017800324078008049780055
:1012e000030ae80002047800e04f50000a003a00c8
:1012f00012003700080178003200fb000204780079
:1013000084007800042798009afe07000e229000bf
:10131000e10f4000090032009e1890008100e800b3
:10132000111f9800050037003e1c9000ce1c900055
:101330005e1d9000ee1d90002e1a900009007800ae
:101340008004e900e00f5000deff3a00381f9800eb
:10135000491f98005a1f98006b1f9800e08f560095
:10136000ae02320011003700380090000004b200d5
:1013700004003200180078000d487800000ce800e6
:1013800005003700880078000002200079fe070081
:10139000e10f4000030032009e1a90008502e80031
:1013a000151f980009067800020037000dc2b3002f
:1013b0002e1c90008c04e900e00f5600eaff3a0072
:1013c000960237007e139000460478007617980046
:1013d000cfc4de00090578008a0578000802be0047
:1013e0000a03be004822de004828dd000402700027
:1013f000044f7800fe1890007086600009003200eb
:10140000e04f520007003200e14f42000500320079
:10141000144798002847980022002000421f980097
:10142000030037001847980013002000431f98005e
:101430000e02e800341f980079ff37003e1f980025
:1014400016002000461f980075ff3700fe1b900015
:10145000070cb300771f98007e189000000cb200b4
:101460003f003a007e1c9000e00f540005003d0054
:101470007e1290004401be004400be007417980024
:1014800010003700fe1a90007080620012003200d7
:101490007e1490004803be00781798004607980015
:1014a00057079800180090004f80de0060079800f2
:1014b000700798004e009000de0090006e019000d2
:1014c000fe019000301f9800411f9800521f9800a5
:1014d000631f98000b003700fe109000c1027800d7
:1014e0007117980005047800cfc4de000905780064
:1014f0008a057800381f9800491f98005a1f9800e5
:101500006b1f98003e189000ce1890005e19900056
:10151000ee199000e00f5000e08f5800e00f5900e6
:10152000e08f590036003d00fe1890003100b300f6
:10153000711f98006022b8006033b8003e1c900014
:10154000ce1c90005e1d9000ee1d9000080452001d
:1015500089845a000a055b008b855b0024003700f4
:10156000fe1c9000e08f540005003d007e129000ac
:101570004401be004400be007417980010003700fc
:10158000fe1a900070806200120032007e149000fb
:101590004803be0078179800460f9800570f980030
:1015a0008004eb00690f98000005eb007a0f9800ab
:1015b0004e089000de0890006e099000fe09900031
:1015c000301f9800411f9800521f9800631f980019
:1015d0000b003700fe109000c102780071179800d0
:1015e00005047800090020000a0020000b002000fc
:1015f000381f9800491f98005a1f98006b1f9800c9
:101600008e1c9000e08f54000d003a001a0020005c
:101610000a1f98003e189000ce1890005e199000a6
:10162000ee199000e00f5000e08f5800e00f5900d5
:10163000e08f5900020032008000eb00011f98008b
:101640007e199000020cb2001217980006042000c8
:10165000860f51003d00320003003c00e00f5100b6
:101660000800320053003700050820009e1190004a
:10167000858f51001a003200050c2000858f510023
:101680004c003a0012c0b300024f7800a18921003b
:101690000f0037000200fb004300dd000080400027
:1016a0003002be002003be003e1c9000ce1c900005
:1016b0005e1d9000ee1d90000440e10005c8e100b1
:1016c00006d0e10007d8e1003a003900024fe800f7
:1016d0001e417800f44f5100eeff3a00350037000c
:1016e00012c0b300024f7800040120000500200062
:1016f0006033b800110037003e1c9000ce1c9000f3
:101700005e1d9000ee1d90000440e10005c8e10060
:1017100006d0e10007d8e10026003900490020008a
:101720000402d0008582d2000683d2008783d200d3
:101730008904e900faff3a00004fe8001e407800f3
:10174000f04f5000ecff3a001a00370012c0b3000f
:10175000024f780084002000050020006033b800ac
:10176000110037003e1c9000ce1c90005e1d9000c2
:10177000ee1d90000440e10005c8e10006d0e10044
:1017800007d8e1000b003900390020000402d00026
:101790008582d2000683d2008783d2008904e900c3
:1017a000faff3a00004fe8001e407800f54f500065
:1017b000ecff3a001e03fb000e1d90008a0f530041
:1017c00002003d000a4f7800040037008e1d900093
:1017d000868f550001003d00061f98002e109000d6
:1017e000e00f500005003200fe189000e382600018
:1017f000020032000000e9002017980005002400d4
:101800007e1990008502610009003200ae1190003f
:101810000e1a9000848f510003003400848151001f
:1018200023179800020037008002eb00251798006c
:101830001e03fb008003eb00071798002e14900096
:10184000860f540002003400060354000617980067
:10185000fe1c9000e48264004c003200628364004d
:10186000e1836400e00f53001b0032002e1d900046
:10187000ba0290000504b200090032001a04780090
:10188000b6c2b300e08f53000100320006c3e80087
:10189000064c7800ae1d9000880de8000a00370065
:1018a000d6022000e08f530001003a000683e900d1
:1018b000ae189000060078002efd070000017800a9
:1018c000e10f4100180032001e1890000000e800ef
:1018d000101f980014003700e08f530012003200f0
:1018e000ae189000b10290000504b200050032006d
:1018f0001103780002c2b300024b78008608e800aa
:1019000006003700ae1890000002200019fd070005
:1019100000017800e10f4100030032001e19900021
:101920000201e800121f98008e119000e08f510014
:101930001701320008c3b300830678002e1e900002
:101940003c0090000004b200040032001c0078004b
:1019500008487800000ee800050037008c00780089
:101960000003200003fd0700e10f400003003200e8
:101970001e1a90000402e800141f98008d06e9006a
:10198000efff3a000d179800010137008e1290000a
:10199000e08f5200180032007e1b9000e8026300c6
:1019a00015003a0008c2b3008e1690002e1e90005b
:1019b0003c0090000004b200040032001c007800db
:1019c00008487800000ee800050037008c00780019
:1019d00000022000e7fc0700e10f40000300320096
:1019e0009e1b90008703e800171f98008d06e900f2
:1019f000efff3a000d1798007e1c90006203640010
:101a0000e1036400e00f53001b003200ae1c9000a5
:101a1000b90290000504b2000900320019047800f0
:101a2000b6c2b300e08f53000100320006c3e800e5
:101a3000064c78002e1d9000080de8000a003700c3
:101a4000d6022000e08f530001003a000683e9002f
:101a5000ae18900006007800c6fc07000001780070
:101a6000e10f4100ca0032009e1d90008b05e80086
:101a70001b1f9800c6003700e08f5300c4003200df
:101a80002e189000b00290000504b200050032004c
:101a90001003780002c2b300024b78000608e80089
:101aa00006003700ae18900000022000b1fc0700cd
:101ab00000017800e10f4100b50032009e1890004f
:101ac0008100e800111f9800b10037000e19900046
:101ad0000201e900021f9800000420009e119000fe
:101ae000808f51008500320003003c00e08f5100e0
:101af0000800320092003700000820001e129000fb
:101b0000800f520066003200000c2000800f52004f
:101b10008b003a008e1a90004328dd007e1b900057
:101b2000e00f53002a003d00a789210000804300f8
:101b30003004be002005be00281798003917980011
:101b40004a1798005b1798000802be000a03be00ff
:101b50003e189000ce1890005e199000ee1990008b
:101b6000ca010700004f78000004fb00cfc4de006c
:101b7000090578008a0578002e129000be129000a8
:101b80004e139000de1390000800be000a01be0054
:101b9000320207000203be000002be003e189000a1
:101ba000ce1890005e199000ee19900004005000cd
:101bb000858058000601590087815900301f980020
:101bc000411f9800521f9800631f98003100370092
:101bd000be009000e08f50001f0032003e1e9000bb
:101be000ce1e9000a2892100000041003004be00fa
:101bf0002005be000801be000c00be000301070066
:101c0000004f78000000fb00cf80de000801be001e
:101c10000e0107000002560081825e00040f98004a
:101c2000150f98008002eb00250f98000003eb00d1
:101c3000360f98000e0c90009e0c90002e0d900018
:101c4000be0d9000381f9800491f98005a1f980039
:101c50006b1f98000f003700a98921000080440005
:101c6000100178003e1d9000811f780011000900ce
:101c70000285d800cf007800a2002000811f7800e4
:101c8000110009000280d80001007800cf00780020
:101c9000004f78000bc3b3001ecf4500280037006b
:101ca000a49321002e009000e00f500001003a00a4
:101cb000b49421008e1890004209dd003e1c900073
:101cc000ce1c90005e1d9000ee1d900082027800f8
:101cd0008502e900050033008b05d1000a85d30099
:101ce0008984d3000884d300f9ff37006f006400b3
:101cf00000004200104f7800110037000e1b9000ca
:101d0000e330b8003e1c9000ce1c90005e1d900099
:101d1000ee1d9000000278000402e9000500330087
:101d20008b05d1000a85d3008984d3000884d300b1
:101d3000f9ff37006740640005c3b300054f40005a
:101d40002e1b9000360090000004b2000700320005
:101d5000160178001e40780000497800020be80068
:101d6000e04f500006003a000f0037001e00fb0055
:101d7000ae189000fffb0700e10f40000a003200a0
:101d80009e1b90008703e800171f9800060037008d
:101d90007e1c90007004640038079800fe1c9000c0
:101da0000902b200290798000e1d9000e00f5500af
:101db00046ff3a00fe1d9000688165001700320062
:101dc0000e109000e00f50001400340008c2b30061
:101dd000800678002e1e90003c0090000004b200a7
:101de000040032001c00780008487800000ee8006b
:101df000050037008c00780000022000ddfb0700a2
:101e0000e10f4000030032009e1890008100e800be
:101e1000111f98008d06e900efff3a006e11900047
:101e200012427800044f7800e04f520022fc3a0042
:101e30001e1890004f06be004f05be004f04be00a6
:101e40000080fa00000006000200fa00889fbe0031
:101e5000004f78000104780038009000800078007e
:101e60000104b20032003a00e200600005003a00ce
:101e70000003b30030049800110498000080eb00c8
:101e80002c003700d8049000e08f540006003a0080
:101e9000120020008e007800480090002c000700ff
:101ea0001904980022003700a8009000e08f50002d
:101eb00008003a00d198210021049800010c780014
:101ec0002100200051049800110498000030a00067
:101ed0003004980018019000a8009000480090007d
:101ee0001b000700280090008080eb001104980080
:101ef0001e487800000ce800a0c0b3009e4f100000
:101f00000b003a00380090000010b20008003200c8
:101f100018019000a8009000480090000c000700f5
:101f20000000eb001004980028009000000c7800de
:101f30001e00fb004f04be000080fa0000000600f7
:101f40000000fa0000c0da000080fa00000006007d
:101f50000a00fa00e20f500021003e0080cc800011
:101f6000e10f5000060032008523200044232000aa
:101f70002323200000232000e08f520004003a00b9
:101f8000852220004422200023222000002220005d
:101f9000060028009003630002003a00870a7800d8
:101fa00010087300004020001300600001003a0098
:101fb00013a0a0000200780006003700930278000a
:101fc0000510b200fdff3200b102fb00050a7800e7
:101fd0000000e900e00f5000f8ff3a000800370069
:101fe00033002000030f78001007980021079800a5
:101ff000320798000e007800d1ff07003e019000e4
:10200000020078000080fa00000006006022b8009c
:10201000060220000000d0008180d2000482d2009d
:102020008582d2000000a0000202520083825a0082
:10203000030031000202420083824a000000a10036
:102040000603e900f3ff3a0000000600020ab900a7
:10205000001bb9000200b80081004200810043006b
:10206000000006000000fa00889fbe008a9fbe00a4
:102070003004be002005be000404440085844c00ea
:1020800006054d0087854d000898be000a90be00e9
:102090000440e10005c8e10006d0e10007d8e100f6
:1020a00002003100680040001008e8004f05be0043
:1020b0004f04be000080fa00000006000000fa0095
:1020c000889fbe008a9fbe008c1f780000067800a3
:1020d0003c04be002c05be000400540085805c005a
:1020e00006015d0087815d00009ebe00029ebe006d
:1020f000100020000440e10005c8e10006d0e10026
:1021000007d8e100010039000000eb001c0e1000b0
:102110004f0678004f05be004f04be000080fa0055
:10212000000006001200fa00889fbe008a9fbe00d1
:102130008c9fbe000205be000004be00540798003c
:102140006507980076079800070f98000000eb00dd
:102150004007980030079800200798001007980063
:10216000000f780000067800fd032000ce019000eb
:102170003e00900003814100ae009000e08f5100ce
:1021800003003d0021000700b6ff070002003700f2
:102190001e000700c9ff0700ce009000e08f50002e
:1021a0000700350014002000050020006033b8004f
:1021b00008047200898472000a0573008b8573001d
:1021c0000c06e8008d0f5600e8ff3400e08f500049
:1021d00002003d0027000700a2ff07004eb897004d
:1021e000e00f500002003a003e04be002e05be0083
:1021f0000800be000a01be004f06be004f05be002b
:102200004f04be000080fa0000000600cf01de008f
:1022100002817100420798004f09de000000400073
:1022200000007100300798001e0090004f01de0092
:102230008180400081007100210798001e02780013
:10224000cf20de00000040000080700010079800e2
:102250000800be000a01be004f18de000402420062
:10226000000f72000804440089844c000a054d00e8
:102270008b854d005e029000ee0290007e03900080
:102280008e0b90000e007800000006000000fa009f
:10229000881f780018002000881f7800a1ff070021
:1022a0008f87e9004f0478000080fa0000000600e4
:1022b0000000fa00801feb009aff07008f87e900fb
:1022c0000080fa00000006000000fa00889fbe00af
:1022d0008a9fbe008c1f7800e00f5000e08f5800ee
:1022e000e00f5900e08f59000f003d006044b80036
:1022f0006055b8000000540081805c0002015d0060
:1023000083815d001c0020000820e10009a8e10095
:102310000ab0e1000bb8e1000d003d001a00070013
:102320000006eb000a0037000006eb00e00f520049
:10233000e08f5a00e00f5b00e08f5b0004003d007f
:102340006044b8006055b8000f0007001c00200072
:10235000ceff0700e00f5600060032006022b800f2
:102360006033b8000000520081805a0002015b0017
:1023700083815b004f0678004f05be004f04be000e
:102380000080fa00000006000402540085825c0010
:1023900006035d0087835d00000006000000fa0070
:1023a000889fbe008a9fbe008c1f7800e00f5000ff
:1023b000e08f5800e00f5900e08f59000d003d00fc
:1023c0006044b8006055b8000000540081805c0093
:1023d00002015d0083815d001c0020000820e100f7
:1023e00009a8e1000ab0e1000bb8e1000d003d00d2
:1023f000080037000006eb00e00f5200e08f5a00a3
:10240000e00f5b00e08f5b0006003d006044b80019
:102410006055b8000402540085825c0006035d002c
:1024200087835d00a2ff0700e00f56000600320020
:102430006022b8006033b8000000520081805a006a
:1024400002015b0083815b004f0678004f05be00f0
:102450004f04be000080fa00000006000000fa00f1
:10246000889fbe008a9fbe008c1f78000006eb008c
:10247000e00f5000e08f5800e00f5900e08f590046
:1024800007003d006044b8006055b80000005400eb
:1024900081805c0002015d0083815d001c002000e2
:1024a000e00f5200e08f5a00e00f5b00e08f5b000e
:1024b00007003d006044b8006055b80004025400b5
:1024c00085825c0006035d0087835d000c00a2002e
:1024d0000d000700e00f5600060032006022b80031
:1024e0006033b8000000520081805a0002015b0096
:1024f00083815b004f0678004f05be004f04be008d
:102500000080fa0000000600889fbe008a9fbe007f
:102510008c9fbe000404b8000506b800890446007c
:1025200060854e000606b8000a054600e0854e00ac
:102530000706b8008b054600040eb8008904460063
:102540000a854e00e0854d00050eb8000a054600dc
:102550008b854e00060eb8008b0546000416b800a9
:102560000a0546008b854e000516b8008b0546000f
:10257000041eb8008b0546000800be000a01be001c
:102580004f06be004f05be004f04be00000006000f
:020000040000fa
:102590005b410000757400006f680000656c00000e
:1025a0006d53000074610000746500005d690000f7
:1025b0006e2000006465000066610000756c00001c
:1025c000740000005b4d0000414900004e5d0000ba
:1025d00065720000726f0000723a00002065000012
:1025e00078690000742000006c6f00006f700000bc
:1025f000005b0000436100006c6900006272000033
:1026000061740000655d000065720000726f00007b
:10261000723a0000204500006e6300006f64000005
:1026200065720000206400006972000065630000ac
:10263000746900006f6e0000206900006e76000073
:102640006572000074650000640000005b430000d8
:10265000616c000069620000726100007465000036
:102660005374000061740000655d00002069000083
:102670006e2000006465000066610000756c00005b
:102680007400000041550000543a0000202500006d
:10269000640a000000430000414c00003a200000a2
:1026a000256400000a00000054410000523a000076
:1026b000202500006c6400000a0000004355000063
:1026c000523a0000202500006c6400000a0000005f
:1026d00052450000563a0000202500006c640000be
:0826e0000a0000000a000000de
:020000040000fa
:1026e8000800fa00100798002107980032079800a0
:1026f8002e009000e00f5000030032001e009000f2
:10270800e00f500002003a000000eb0025003700ff
:102718003e009000e10f500002003e000000eb0078
:10272800200037001e009000ae0090005100980075
:102738000000eb00000f7800060037001e00900034
:10274800500090009e0040000040eb008048780058
:102758001e0fe8003e0090009e007800808f500019
:10276800f6ff39001e0090008000eb000108780099
:102778001e0090008000eb00110098001e009000e1
:10278800be009000210098001e0090008000eb0021
:10279800310098009e0090000040eb0080489800af
:1027a800100020000080fa00000006000400fa0073
:1027b800000f7800110798001e007800e00f500005
:1027c800340032001e00780030009000e00f500006
:1027d800300032001e007800d00090001e00780003
:1027e8001000780000804000104078009e009000a3
:1027f800804878001e00780030009000e10f5000fb
:102808000f003a001e007800900078001e00780043
:10281800200090000000e900808f50000400310083
:102828001e007800100078000000e8000100370062
:102838000000eb009e007800800878000e0037004a
:102848001e007800900078001e007800200090009c
:102858000000e900808f5000040031001e0078005d
:10286800100078000000e800010037000000eb00cd
:102878009e007800800878001e00780030009000e4
:102888008000e9001e007800310098001000200048
:10289800010037000000eb000080fa00000006008d
:1028a8000a00fa00200798003107980042079800ac
:1028b8002e009000e00f5000340032003e009000df
:1028c800e00f5000310032003e00900010079800e1
:1028d8002e009000b00090004e009000808f5000b5
:1028e8002a0039000000eb00000f78001b003700b9
:1028f8001e0078009e009000808040002e0090000e
:10290800500190002e009000100078000000410057
:1029180010407800804878002e00900090007800e1
:102928002e009000200090000000e900808f5000e9
:10293800060031002e009000100078008000e800aa
:102948002e00900001087800030037002e00900048
:102958008000eb00010878001e0fe8009e00780058
:102968004e009000808f5000e1ff39002e0090004b
:10297800b00090004e009000808050002e00900023
:102988003100980010002000010037000000eb0023
:102998000080fa00000006000400fa00000f78002a
:1029a800214798001e007800e00f500029003200ef
:1029b8001e007800b00090001e00780020009000f3
:1029c800808f500007003a001e00780000489000f1
:1029d8000040e8009e007800804898000000eb0066
:1029e8001d0037001e007800d00090001e007800ff
:1029f8001000900000804000ae4090000148780030
:102a08001e007800900090001e00780020009000c2
:102a18000000e900808f5000040031001e0078009b
:102a2800100090000000e800010037000000eb00f3
:102a38009e007800900098001e00780030009000fa
:102a48008000e8001e007800310098001000200087
:102a5800010037000000eb000080fa0000000600cb
:102a68000e00fa00300798004107980052079800b6
:102a7800434f98003e009000e00f50007500320070
:102a88004e009000e00f5000720032004e0090009f
:102a9800200798004e489000e04f50003200320066
:102aa8003e009000a00090003e0090003000900092
:102ab800808050005e009000808f5000020031003e
:102ac8000000eb00640037000000eb00000f780006
:102ad800190037003e009000d00090003e009000a2
:102ae80010009000808040001e0078002e019000a9
:102af8000000410010407800804878001e0fe80070
:102b08003e009000900090003e0090002000900051
:102b18000000e900808f5000040031003e00900062
:102b2800100090000000e800010037000000eb00f2
:102b3800be009000900098009e0078005e00900013
:102b4800808f5000e3ff39003e009000b0009000f5
:102b58001e007800808040003e0090003100980000
:102b6800100020003c0037000000eb001007980020
:102b7800320037003e009000b00090003e00900008
:102b880020009000808f50000c003a003e0090001a
:102b9800804890005e009000004178001e00900080
:102ba800004078000040510000c04000be00900086
:102bb800804898000000eb00270037003e00900096
:102bc800d00090003e0090001000900080804000ef
:102bd8001e0090002e019000000041001040780077
:102be800804878001e0090000000e8001007980058
:102bf8003e009000300090008000e8003e00900009
:102c0800310098003e009000900090003e00900037
:102c1800200090000000e900808f5000040031007f
:102c28003e009000100090000000e800010037000e
:102c38000000eb00be009000900098009e009000fd
:102c48005e009000808f5000caff390010002000fd
:102c5800010037000000eb000080fa0000000600c9
:102c68000400fa00000f7800110798001e00780091
:102c7800e00f50000e0032001e0078003000900077
:102c8800e00f50000a0032001e007800d0009000cb
:102c98001e00780010007800008040001040780086
:102ca8009e00900080487800100020000100370046
:102cb8000000eb000080fa00000006000c00fa009b
:102cc8003007980041079800520798003e0090008e
:102cd800e00f5000280032004e00900020079800b6
:102ce8003e009000b00090005e009000808f500081
:102cf800210039003e00900010007800100798006d
:102d08000000eb00000f7800150037002e0090003f
:102d18009e0040003e009000500190001e00900070
:102d28000000410010407800804878009e00900024
:102d38003e009000200090000000e900808f5000c5
:102d4800040031001e0090000000e8001007980001
:102d5800020037000000eb00100798001e0fe80083
:102d68005e0090009e007800808f5000e7ff3900d9
:102d780010002000010037000000eb000080fa007e
:102d8800000006000400fa00000f78001107980000
:102d98001e007800b00090001e009000808f500048
:102da800200036001e007800a00090001e00780069
:102db80010007800808050001e009000808f500026
:102dc8000a0031001e007800900078001e0078008c
:102dd80020009000808050001e00900080804000fd
:102de8001e00780001087800060037001e007800f1
:102df800900078001e009000808040001e0078003f
:102e0800010878001e007800b00090001e009000b5
:102e1800808050001e0078003100980010002000cb
:102e2800080037001e007800900090001e0078000f
:102e3800010878001e0078008000eb00310098003f
:102e4800100020000080fa00000006000000fa00d0
:102e5800889fbe005c000700411f20000040eb0077
:102e6800d1010700a100200010c0b300ce01070067
:102e7800450037000040eb0003020700e04f500018
:102e8800040032005c010700411f20000040eb00f5
:102e9800c501070010c0b300c2020700e0c08000ef
:102ea800e10f50000e003200e10f5000030039001e
:102eb800e20f5000310032002c0037007c00070080
:102ec800e34f50002f003a006000b80060c188004e
:102ed80071c1880010002000e0c088002a00370077
:102ee8002a05070001002000b4f607000004be0010
:102ef80011c18000f0c0800000805000cf80de004b
:102f0800abf607000001be000800be0000f707008e
:102f180002002c00f347240027f607000004be0037
:102f2800f0c08000cf80de00a1f607000001be00df
:102f38000800be00c3f5070061f6070060c18800fd
:102f480071c1880043040700cf80de0064c180009f
:102f580075c180000001be000400be00a300070088
:102f6800000078006b02070007003700802c29005a
:102f78006bf707001818a8000300370000000000ce
:102f88000100370000000000c0c080006100600040
:102f9800e00f5000b7ff3200202e290060f707002d
:102fa800020037000000eb005a020700c0c0800092
:102fb80061006000e00f5000faff3a004f04be00c5
:102fc8000080fa00000006000000fa00008ea90048
:102fd800000ea800118ea8000e0ea9000900070017
:102fe80018020700c304070050012000f902070077
:102ff800bb030700260107001a0407000080fa0037
:10300800000006000000fa00b0022000303a8800f4
:10301800213a8000f0f32f0000806000203a8800f9
:10302800213a800000fe2f0000806000203a8800ce
:103038000000eb00403a880040a7a90012002000d9
:1030480080072000a10920003374200080497800ff
:10305800814978008249780012002000600420002d
:103068007105200023742000804978008149780088
:103078008249780000000000113a80000000270013
:103088008080600000002100808f5000faff3a0025
:1030980000000000113a800000022000008060005b
:1030a800e00f5000fbff32000080fa00000006002d
:1030b8000000fa00d0c0800001002000320020008b
:1030c80003002000820f5000838f58003d003e000f
:1030d8000006010003003700130037001e00370008
:1030e8003500370010c02f000a020700d903070077
:1030f800e00f500003003400902f290008f7070064
:103108001818a8001070800061006000e00f5000df
:103118002f003a0010002000d0c08800cd0307001f
:10312800f0c088002d003700f03f2000f9010700ab
:10313800917080000000210000806000e00f5000c6
:1031480025003a0020002000d0c08800c1030700f5
:1031580010c188002100370011c18000f0c0800034
:10316800008040000080d10000c18800b90307003a
:1031780001c18000810f50000300340010c02f00ef
:10318800e401070015003700b203070001c1800001
:10319800810f500003003d00f03f2000dd010700d3
:1031a8000e0037000000eb00da01070030002000b5
:1031b800d0c08800090037000000eb00d5010700e7
:1031c8000600370060322900d5f6070003003700f3
:1031d800000000000100370000000000d0c080009f
:1031e800004078000080fa00000006000800fa009d
:1031f800889fbe00008fbe00220798003307980002
:103208002e009000be00900040c2880051c2880085
:1032180040c2800051c280003e011000ae811800fb
:103228000200be00c0c18800d1c1880042c280002f
:1032380053c2800060c2800071c28000000051004b
:1032480081805900e0c18800f1c18800c0c18000b8
:10325800d1c18000ea09b800e002b8008401780012
:1032680003014100a30020000300b8000101410050
:103278008200780020c2880031c2880044c28000e1
:1032880055c2800060c2800071c28000e2ff2f003a
:103298008209b8008081eb008303b80086017800ba
:1032a80003014100e3ff2f000300b80001014100c2
:1032b80082007800040140008581480080c28000b7
:1032c80091c280000200400083804800b8f50700e2
:1032d800020020000312240037f5070078f50700e4
:1032e80000c2880011c28800a0c18000b1c180005e
:1032f800aff507000004be00e0c18000f1c1800006
:10330800abf50700020020006331240000f6070037
:103318000001be000800be00c9f407000004be009a
:1033280020c2800031c28000a1f507000200200001
:1033380003f02300f6f507000001be000800be00f8
:10334800c0f407000004be0000c2800011c2800063
:1033580097f507000001be000800be00b8f407009a
:1033680057f50700a0c18800b1c18800a2c180003c
:10337800b3c18000f03f200001002000800f510001
:10338800818f590004003400f03f20000100200024
:10339800a0c18800b1c18800a2c18000b3c180006b
:1033a80010c02f00f1ff2f00800f5100818f5900ae
:1033b80004003d0010c02f00f1ff2f00a0c18800bd
:1033c800b1c1880060c2800071c2800080c28800dc
:1033d80091c2880040c2800051c2800060c288004b
:1033e80071c28800a0c18000b1c180004f04be0036
:1033f8000080fa00000006000000fa00e0c080002b
:10340800801f780020342900801f780050f60700bc
:10341800e4875700d0c08000801f7800b0342900ae
:10342800801f78004af60700e487570060c18000d3
:1034380071c18000809fbe0040352900801f780040
:1034480043f60700e687570080c1800091c18000dd
:10345800809fbe00e0352900801f78003cf60700f9
:10346800e6875700fb020700cf80de00809fbe0082
:1034780080362900801f780035f60700e687570058
:103488002037290026f607000080fa000000060011
:103498000000fa000000eb0000c488000000eb0008
:1034a80010c488000000eb0020c4880001c4290073
:1034b800d0f82f005df40700b0ff2f004af4070092
:1034c80020e8a8000080fa00000006000400fa00c6
:1034d800004f7800110798001e407800ef4f500009
:1034e8000200360000c0eb00080037009e4078005c
:1034f8000180fb0080004000008621000080400021
:103508009e0090000108780010c0b3000080fa0007
:10351800000006000200fa00004f78001e40780004
:10352800ef4f50000200360000c0eb0009003700e2
:103538009e4078000180fb00110020000008dd009b
:103548008000780000c480000080700000c48800fb
:1035580010c0b3000080fa00000006000200fa0064
:10356800004f78001e407800ef4f500002003600f0
:1035780000c0eb000a0037009e4078000180fb0085
:10358800110020000008dd000080ea0080007800bb
:1035980000c480000080600000c4880010c0b30030
:1035a8000080fa00000006000400fa00004f7800ce
:1035b800110798001e407800ef4f500002003600b7
:1035c80000c0eb00190037009e4078000180fb0026
:1035d8008000400000862100008040009e0090008e
:1035e800010878009e4078000180fb00110020004f
:1035f8000008dd000080ea008000780010c4800028
:103608000080600010c488009e4078000180fb00a4
:10361800110020000008dd008000780000c4800050
:103628000080700000c4880010c0b3000080fa0059
:10363800000006000200fa00004f78001e407800e3
:10364800ef4f50000200360000c0eb000c003700be
:103658009e4078000180fb00110020000008dd007a
:103668008000780000c4800000806000e00f5000f7
:103678000200320010c0b300010037000040eb0028
:103688000080fa00000006000200fa00004f7800ef
:103698001e407800ef4f50000200360000c0eb00db
:1036a8000c0037009e4078000180fb0011002000cc
:1036b8000008dd008000780010c4800000806000f1
:1036c800e00f50000200320010c0b30001003700c4
:1036d8000040eb000080fa00000006000200fa003b
:1036e800004f78001e407800ef4f5000020036006f
:1036f80000c0eb000a0037009e4078000180fb0004
:10370800110020000008dd000080ea008000780039
:1037180010c480000080600010c4880010c0b3008e
:103728000080fa00000006000000fa0020c48000b3
:103738000080fa0000000600809fbe00829fbe0045
:103748003200f800002020009001880000000000ee
:103758000200fa0020c480000000e80020c48800ad
:103768000040eb00004f780000c48000e00f5000dc
:103778002e0032000040eb00004f78002800370090
:103788001e00fb00110020000008dd00800078000a
:1037980000c4800000806000e00f50001f0032006d
:1037a8001e00fb000001400001862100810041004d
:1037b800910078000101e9008001400001862100a4
:1037c8008180410082087800800040000086210046
:1037d8000080400010007800e00f50000f003a0011
:1037e8001e00fb00110020000008dd0080007800aa
:1037f80010c480000080700010c488001e00fb0008
:10380800110020000008dd000080ea008000780038
:1038180000c480000080600000c488001e4fe800db
:103828001e407800ef4f5000d5ff340000e8a90093
:103838000080fa003200f9004f01be004f00be00c0
:10384800004006000000fa0000052000950007006f
:10385800104ea900100ea900803e200020608800ac
:103868000000eb00406188001161800000c020006a
:10387800008070001061880023eca80023cca90008
:1038880043cca900106280004e00de006140600059
:103898000080fb004f00dd0012628000f1ff27006e
:1038a80081006100008070001062880063cca9006c
:1038b800106380004e00de00614060000080fb0065
:1038c8004f00dd0012638000f1ff270081006100d6
:1038d80000807000106388000000eb000061880021
:1038e80030002000206188000000eb001060880094
:1038f80000002800006088000000eb0038f3070093
:103908008000eb000000eb0032f307000080fa00b3
:10391800000006000200fa00000f78001e00780080
:1039280030c4880031c48000f03f2000808f5000f0
:1039380002003400f03f200030c4880031c4800009
:1039480010c02f00808f500002003d0010c02f00d3
:1039580030c488000080fa00000006000200fa0067
:10396800000f7800f03f20009e007800808f500004
:1039780002003400f03f2000000f780010c02f0034
:103988009e007800808f500002003d0010c02f007c
:10399800000f78001e00780011f307000080fa007d
:1039a800000006000200fa00004f78001e40780070
:1039b8008bf8b7001e407800e14f500002003a0033
:1039c800144ea800040037001e407800e04f500055
:1039d80001003a00144ea9000080fa000000060019
:1039e8000000fa008bd8bf00e04f500002003a00f8
:1039f8000040eb002100370022000700e00f5000d4
:103a08000300320023000700e00f500002003a00d4
:103a180000c0eb00190037008cd8bf00e04f500001
:103a280006003a0080c4800070c4880010c0b3004b
:103a38008cf8b700eaff07000f0037008cd8bf00ea
:103a4800e14f50000c003a000040eb008cf8b70042
:103a580071c4800080c48000808050000032200043
:103a6800808f50000200360010c0b30003003700fa
:103a78000040eb0001003700000037000080fa002a
:103a8800000006000000fa0040c480000080fa0030
:103a9800000006000000fa0030c480000080fa0030
:103aa800000006000200fa00000f78000000eb009a
:103ab800200888000068a90041a8a8002068a8007c
:103ac8001e007800100888000003280020088800dd
:103ad8000080fa00000006000400fa0030c48000ec
:103ae8001007980040c48000e00f500005003d001a
:103af80040c48000000fea0010c0b3008af8b70085
:103b08000700370040c48000e00f50000400350073
:103b18000040eb008af8b70040c48000000f78002e
:103b28008ad8bf00614060000080fb00610060002f
:103b3800a2708000e1ff2f0081006100008070000a
:103b4800a070880041c480001e009000808f500043
:103b580006003d0040c480006a00400040c4880060
:103b68001e0078009ef207000900370041c480005b
:103b78001e009000808f50000500340040c4800073
:103b88006a00500040c488001e00780094f20700c4
:103b98000080fa00000006003600f800809fbe0092
:103ba800829fbe00849fbe00869fbe000000fa0070
:103bb800c9ff07000068a9000080fa004f03be0093
:103bc8004f02be004f01be004f00be003600f90094
:103bd800004006000200fa00000f7800113a800049
:103be800f00b2000008160006004200071052000b7
:103bf8002374200080497800814978008249780040
:103c08002136800000f82f0000806000d000b3004b
:103c18002036880041348000f00f2c00808060003e
:103c2800001020000080700040348800113a8000a5
:103c3800000420000081700060042000710520004d
:103c480023742000804978008149780082497800ef
:103c580002402000c100210000002100a0fa070056
:103c68000240200081412100c04021009cfa070049
:103c780021e2a90021a2a9002182a9002162a900ac
:103c880001118000f0cf2f00008060000011880033
:103c980020e2a80020c2a90020a2a9002082a90031
:103ca8000111800090ff2f00008060000011880043
:103cb8002002a9002062a90011118000f0f32f0052
:103cc800008060001011880023a2a80023e2a90048
:103cd8002222a9001e00780040118800314280008d
:103ce80080ff2f00008060006000b3003042880031
:103cf80021428000f0ff280080806000000026003c
:103d080000807000204288002188a8002168a8004f
:103d180021e2a8002342a8000080fa000000060063
:103d28000400fa0010079800101180004a00de0015
:103d380061406000004f780021e2a9001e00900059
:103d48004011880021e2a8009e40780061c0600010
:103d58000080fb00610060004a00dd001211800055
:103d6800f1bf2f00810061000080700010118800f1
:103d78000080fa00000006000200fa000600370082
:103d88008e007800c040210088fa07001e407800a5
:103d98000080fb002011880090a08000e00f5000f8
:103da8000500320011118000002020000080600012
:103db800e00f5000f2ff32000080fa000000060019
:103dc8000200fa00000f78009e0078000000210031
:103dd80076fa07000080fa00000006000200fa00e8
:103de800004f78009e407800c0402100eafa0700a2
:103df800e1ff07000080fa00000006000600fa0054
:103e080010079800210798008041eb002e019000d0
:103e18009e009000c040210011fb0700000f7800b1
:103e2800d5ff07001e0078000080fa000000060099
:103e38003600f800809fbe00829fbe00849fbe00af
:103e4800869fbe000000fa00050037003011800090
:103e5800004078008040780000002100cefa07007a
:103e68001011800061006000e00f5000f7ff3a0079
:103e78001011800062006000e00f50000100320065
:103e88002222a9000168a9000080fa004f03be00a1
:103e98004f02be004f01be004f00be003600f900c1
:103ea800004006003600f800809fbe00829fbe00da
:103eb800849fbe00869fbe000000fa00aeff070088
:103ec8000188a9000080fa004f03be004f02be001f
:103ed8004f01be004f00be003600f900004006004a
:103ee8000000fa00113a8000f00b20000081600009
:103ef80060042000710520002374200080497800a8
:103f08008149780082497800e135800000f82f0067
:103f1800808060008002200000807000e03588000a
:103f2800e1358000f00f28008080600000902200ba
:103f380000807000e0358800113a800000042000fd
:103f480000817000600420007105200023742000a7
:103f5800804978008149780082497800c1e1a80049
:103f6800c1a1a900010e8000f03f2e0080806000f2
:103f78000080210000807000000e8800010e800083
:103f8800f0cf2f0000806000000e8800010e800036
:103f9800f0f82f0000806000000e8800c061a900c2
:103fa800c041a900010e8000c0ff2f000080600002
:103fb800000e8800c3e1a900c3c1a800110e80004b
:103fc800f07f2c0000806000100e8800110e800029
:103fd8000060200000807000100e8800c301a90056
:103fe800c2e1a900c2c1a900c281a900c2a1a90059
:103ff800c581a800c541a800c501a900c4c1a90080
:10400800c481a900c441a900c401a9000000eb00b3
:10401800f00e880010002000e00e88000000eb0081
:10402800100f88000000eb00000f88002748a80048
:10403800e1428000f08f2f00808060000010200097
:1040480000807000e0428800c1e1a8000080fa000a
:10405800000006000000fa00c0c480000080fa00da
:10406800000006000000fa000000eb000200070054
:104078000080fa00000006000200fa00000f780035
:104088001e007800c0c488000080fa000000060006
:104098000000fa000080fa0000000600809fbe00c1
:1040a8003200f80000202000900188000000000085
:1040b8000000fa00210e800000002200008060004d
:1040c800e00f500004003200c0c480000000e80087
:1040d800c0c48800c5a1a900210e8000008020006e
:1040e80000806000e00f500004003200c0c480006f
:1040f8000000e900c0c48800c561a9000748a900fc
:104108000080fa003200f9004f00be0000400600af
:020000040000fa
:1041180096180000020000008000000092180000bd
:1041280004000000820000000002010002000000fc
:1041380018180000480000008000000098180000cf
:104148000200000080000000861800000c0000003b
:1041580080000000601800002600000080000000b9
:104168000010000018080000800000008a190000f4
:10417800060000008000000064190000260000000e
:10418800820000008b190000008b19000900000054
:10419800000200008d190000008d19000e020100b8
:1041a80000000000000000000000000006020200fd
:1041b80000000000641900003a1900002a000000fd
:1041c8008200000030313200333435003637380091
:1041d8003941420043444500460030003132330043
:1041e800343536003738390061626300646566002b
:1041f80000286e00756c6c00290000009a180000f9
:10420800a000000082000000010000000000000083
:1042180000000a0000000000000000000064000028
:104228000000000000000000e8030000000000009b
:1042380000001000270000000000000000a0860019
:10424800010000000000000040420f0000000000d4
:104258000000800096980000000000000000e100c7
:10426800f50500000000000000ca9a003b000000ad
:1042780000000000e40b5400020000000000e80009
:1042880076481700000000000010a500d4e80000e0
:1042980000000000a0724e00180900000000400055
:1042a8007a10f3005a0000000080c600a47e8d003a
:1042b8000300000000c16f00f28623000000000028
:1042c8008a5d78004563010000006400a7b3b6006a
:1042d800e00d000000e889000423c7008a00000000
:1042e8009019000002000000820000000100000098
:0442f80000000000c2
:020000040000fa
:1042fc000000fa000000eb00001988000119800092
:10430c00000e200000807000001988002043a800d7
:10431c000000eb00101988000000eb002019880049
:10432c0021198000f00f2e008080600000f020002a
:10433c0000807000201988000000eb0090198800a4
:10434c000000eb00f0708800f07080007070880046
:10435c001e2ea8000000eb004019880041198000b7
:10436c0000fe2f00008060003000b3004019880070
:10437c003063a800b0ff2f0084f0070021e3a800f1
:10438c000080fa00000006000000fa00060007009a
:10439c000080fa00000006000000fa00b0c48000a3
:1043ac000080fa00000006000400fa00889fbe009e
:1043bc00b1c48000a0c48000808f50000200360081
:1043cc00b0c48000a0c48800b1c4800090c4800038
:1043dc00808f500002003100b0c4800090c488006f
:1043ec0091c48000f0132000808f500002003e002a
:1043fc00a014200090c48800a1c48000702b200061
:10440c00808f500002003600d02a2000a0c4880003
:10441c00b1c4800090c480000080500001002000d6
:10442c0065f1070002002c00f3472400b7f10700e8
:10443c000004be00a1c4800090c480000080500025
:10444c00010020005cf107000001be000800be0066
:10445c00d8f007003af10700008fbe00e03f2000c3
:10446c00010020001e01be00800f5100818f5900f9
:10447c0003003600f03f200001002000008fbe003a
:10448c001e0078004f04be000080fa0000000600f9
:10449c00801f78000000fa0000188000b0c488006b
:1044ac0001a8a9000080fa004f0078000040060027
:020000040000fa
:020000040005f5
:045fe000ddff0000e1
:020000040000fa
:020000040005f5
:045fe8007fff000037
:020000040000fa
:020000040005f5
:045fec007dff000035
:020000040000fa
:020000040005f5
:045ff000b8ff0000f6
:00000001FF
